{
  "_format": "hh-sol-artifact-1",
  "contractName": "GuardianFacet",
  "sourceName": "contracts/facets/GuardianFacet.sol",
  "abi": [
    {
      "anonymous": false,
      "inputs": [
        {
          "indexed": true,
          "internalType": "uint256",
          "name": "groupId",
          "type": "uint256"
        },
        {
          "indexed": true,
          "internalType": "address",
          "name": "oldAdmin",
          "type": "address"
        },
        {
          "indexed": true,
          "internalType": "address",
          "name": "newAdmin",
          "type": "address"
        }
      ],
      "name": "GroupAdminUpdated",
      "type": "event"
    },
    {
      "anonymous": false,
      "inputs": [
        {
          "indexed": true,
          "internalType": "uint256",
          "name": "groupId",
          "type": "uint256"
        },
        {
          "indexed": false,
          "internalType": "uint8",
          "name": "depth",
          "type": "uint8"
        },
        {
          "indexed": false,
          "internalType": "uint256",
          "name": "zeroValue",
          "type": "uint256"
        }
      ],
      "name": "GroupCreated",
      "type": "event"
    },
    {
      "anonymous": false,
      "inputs": [
        {
          "indexed": true,
          "internalType": "uint256",
          "name": "hashId",
          "type": "uint256"
        },
        {
          "indexed": false,
          "internalType": "uint256",
          "name": "effectiveTime",
          "type": "uint256"
        }
      ],
      "name": "GuardianAdded",
      "type": "event"
    },
    {
      "anonymous": false,
      "inputs": [
        {
          "indexed": true,
          "internalType": "uint256",
          "name": "hashId",
          "type": "uint256"
        },
        {
          "indexed": false,
          "internalType": "uint256",
          "name": "effectiveTime",
          "type": "uint256"
        }
      ],
      "name": "GuardianRemoved",
      "type": "event"
    },
    {
      "anonymous": false,
      "inputs": [
        {
          "indexed": true,
          "internalType": "uint256",
          "name": "treeId",
          "type": "uint256"
        },
        {
          "indexed": false,
          "internalType": "uint256",
          "name": "leaf",
          "type": "uint256"
        },
        {
          "indexed": false,
          "internalType": "uint256",
          "name": "root",
          "type": "uint256"
        }
      ],
      "name": "LeafInserted",
      "type": "event"
    },
    {
      "anonymous": false,
      "inputs": [
        {
          "indexed": true,
          "internalType": "uint256",
          "name": "treeId",
          "type": "uint256"
        },
        {
          "indexed": false,
          "internalType": "uint256",
          "name": "leaf",
          "type": "uint256"
        },
        {
          "indexed": false,
          "internalType": "uint256",
          "name": "root",
          "type": "uint256"
        }
      ],
      "name": "LeafRemoved",
      "type": "event"
    },
    {
      "anonymous": false,
      "inputs": [
        {
          "indexed": true,
          "internalType": "uint256",
          "name": "groupId",
          "type": "uint256"
        },
        {
          "indexed": false,
          "internalType": "uint256",
          "name": "identityCommitment",
          "type": "uint256"
        },
        {
          "indexed": false,
          "internalType": "uint256",
          "name": "root",
          "type": "uint256"
        }
      ],
      "name": "MemberAdded",
      "type": "event"
    },
    {
      "anonymous": false,
      "inputs": [
        {
          "indexed": true,
          "internalType": "uint256",
          "name": "groupId",
          "type": "uint256"
        },
        {
          "indexed": false,
          "internalType": "uint256",
          "name": "identityCommitment",
          "type": "uint256"
        },
        {
          "indexed": false,
          "internalType": "uint256",
          "name": "root",
          "type": "uint256"
        }
      ],
      "name": "MemberRemoved",
      "type": "event"
    },
    {
      "anonymous": false,
      "inputs": [
        {
          "indexed": true,
          "internalType": "address",
          "name": "previousOwner",
          "type": "address"
        },
        {
          "indexed": true,
          "internalType": "address",
          "name": "newOwner",
          "type": "address"
        }
      ],
      "name": "OwnershipTransferred",
      "type": "event"
    },
    {
      "anonymous": false,
      "inputs": [
        {
          "indexed": false,
          "internalType": "uint256",
          "name": "id",
          "type": "uint256"
        },
        {
          "indexed": false,
          "internalType": "uint8",
          "name": "depth",
          "type": "uint8"
        }
      ],
      "name": "TreeCreated",
      "type": "event"
    },
    {
      "inputs": [
        {
          "internalType": "uint256",
          "name": "hashId",
          "type": "uint256"
        }
      ],
      "name": "addGuardian",
      "outputs": [
        {
          "internalType": "bool",
          "name": "",
          "type": "bool"
        }
      ],
      "stateMutability": "nonpayable",
      "type": "function"
    },
    {
      "inputs": [
        {
          "internalType": "uint256",
          "name": "groupId",
          "type": "uint256"
        },
        {
          "internalType": "uint256[]",
          "name": "identityCommitments",
          "type": "uint256[]"
        }
      ],
      "name": "addGuardians",
      "outputs": [],
      "stateMutability": "nonpayable",
      "type": "function"
    },
    {
      "inputs": [],
      "name": "cancelPendingGuardians",
      "outputs": [],
      "stateMutability": "nonpayable",
      "type": "function"
    },
    {
      "inputs": [
        {
          "internalType": "uint256",
          "name": "hashId",
          "type": "uint256"
        }
      ],
      "name": "getGuardian",
      "outputs": [
        {
          "components": [
            {
              "internalType": "uint256",
              "name": "hashId",
              "type": "uint256"
            },
            {
              "internalType": "uint8",
              "name": "status",
              "type": "uint8"
            },
            {
              "internalType": "uint64",
              "name": "timestamp",
              "type": "uint64"
            }
          ],
          "internalType": "struct GuardianStorage.Guardian",
          "name": "",
          "type": "tuple"
        }
      ],
      "stateMutability": "view",
      "type": "function"
    },
    {
      "inputs": [
        {
          "internalType": "bool",
          "name": "includePendingAddition",
          "type": "bool"
        }
      ],
      "name": "getGuardians",
      "outputs": [
        {
          "components": [
            {
              "internalType": "uint256",
              "name": "hashId",
              "type": "uint256"
            },
            {
              "internalType": "uint8",
              "name": "status",
              "type": "uint8"
            },
            {
              "internalType": "uint64",
              "name": "timestamp",
              "type": "uint64"
            }
          ],
          "internalType": "struct GuardianStorage.Guardian[]",
          "name": "",
          "type": "tuple[]"
        }
      ],
      "stateMutability": "view",
      "type": "function"
    },
    {
      "inputs": [],
      "name": "guardianFacetVersion",
      "outputs": [
        {
          "internalType": "string",
          "name": "",
          "type": "string"
        }
      ],
      "stateMutability": "pure",
      "type": "function"
    },
    {
      "inputs": [
        {
          "internalType": "bool",
          "name": "includePendingAddition",
          "type": "bool"
        }
      ],
      "name": "numGuardians",
      "outputs": [
        {
          "internalType": "uint256",
          "name": "",
          "type": "uint256"
        }
      ],
      "stateMutability": "view",
      "type": "function"
    },
    {
      "inputs": [
        {
          "internalType": "uint256",
          "name": "hashId",
          "type": "uint256"
        }
      ],
      "name": "removeGuardian",
      "outputs": [
        {
          "internalType": "bool",
          "name": "",
          "type": "bool"
        }
      ],
      "stateMutability": "nonpayable",
      "type": "function"
    },
    {
      "inputs": [
        {
          "internalType": "uint256[]",
          "name": "guardians",
          "type": "uint256[]"
        }
      ],
      "name": "removeGuardians",
      "outputs": [],
      "stateMutability": "nonpayable",
      "type": "function"
    },
    {
      "inputs": [
        {
          "components": [
            {
              "internalType": "uint256",
              "name": "hashId",
              "type": "uint256"
            }
          ],
          "internalType": "struct IGuardianInternal.GuardianDTO[]",
          "name": "guardians",
          "type": "tuple[]"
        }
      ],
      "name": "requireMajority",
      "outputs": [],
      "stateMutability": "view",
      "type": "function"
    },
    {
      "inputs": [
        {
          "internalType": "uint256[]",
          "name": "guardians",
          "type": "uint256[]"
        }
      ],
      "name": "setInitialGuardians",
      "outputs": [],
      "stateMutability": "nonpayable",
      "type": "function"
    }
  ],
  "bytecode": "0x608060405234801561001057600080fd5b50611c8c806100206000396000f3fe608060405234801561001057600080fd5b50600436106100a95760003560e01c806398725819116100715780639872581914610142578063a4a9ba73146100ea578063a7ba59f114610169578063a8f9cf3a1461017c578063a9c33b741461018f578063c3b9d44f146101a257600080fd5b80630206b440146100ae57806305b9e533146100d757806331076217146100ec5780634cc499d71461010f5780635136bbda1461012f575b600080fd5b6100c16100bc3660046116e7565b6101c3565b6040516100ce9190611709565b60405180910390f35b6100ea6100e5366004611777565b6101d4565b005b6100ff6100fa3660046117eb565b6101e3565b60405190151581526020016100ce565b61012261011d3660046117eb565b6101f7565b6040516100ce9190611804565b6100ff61013d3660046117eb565b610294565b6040805180820182526005815264302e302e3160d81b602082015290516100ce9190611831565b6100ea610177366004611936565b6102a8565b6100ea61018a36600461197c565b6103dd565b6100ea61019d36600461197c565b61047d565b6101b56101b03660046116e7565b610524565b6040519081526020016100ce565b60606101ce8261052f565b92915050565b6101de828261069e565b505050565b60006101ee82610865565b6101ce826108c4565b604080516060810182526000808252602082018190529181018290529061021d836109e9565b9050600081116102745760405162461bcd60e51b815260206004820152601c60248201527f477561726469616e3a20475541524449414e5f4e4f545f464f554e440000000060448201526064015b60405180910390fd5b60006102816001836119c6565b905061028c81610a08565b949350505050565b600061029f82610aa5565b6101ce82610b9f565b7f8a22373512790c48b83a1fe2efdd2888d4a917bcdc24d0adf63e60f671680460546001600160a01b031633146103215760405162461bcd60e51b815260206004820152601d60248201527f4f776e61626c653a2073656e646572206d757374206265206f776e6572000000604482015260640161026b565b8161032b81610c8d565b60ff1660000361038d5760405162461bcd60e51b815260206004820152602760248201527f53656d6170686f726547726f757073426173653a2047524f55505f49445f4e4f6044820152661517d1561254d560ca1b606482015260840161026b565b610396826103dd565b60005b82518110156103d7576103c5848483815181106103b8576103b86119dd565b6020026020010151610caf565b806103cf816119f3565b915050610399565b50505050565b6103e681610d1b565b60005b8151811015610478576000828281518110610406576104066119dd565b60200260200101519050610419816101e3565b6104655760405162461bcd60e51b815260206004820181905260248201527f477561726469616e3a204641494c45445f544f5f4144445f475541524449414e604482015260640161026b565b5080610470816119f3565b9150506103e9565b505b50565b61048681610e87565b60005b81518110156104785760008282815181106104a6576104a66119dd565b602002602001015190506104b981610294565b6105115760405162461bcd60e51b815260206004820152602360248201527f477561726469616e3a204641494c45445f544f5f52454d4f56455f475541524460448201526224a0a760e91b606482015260840161026b565b508061051c816119f3565b915050610489565b60006101ce82610ed8565b60606000600080516020611c37833981519152600101546001600160401b0381111561055d5761055d611886565b6040519080825280602002602001820160405280156105a857816020015b604080516060810182526000808252602080830182905292820152825260001990920191018161057b5790505b5090506000805b7f45859138d8d663d06b2ba6d2358a3e0ff977596ccb2ad702c7f89e6584675d3554811015610695576000600080516020611c3783398151915260010182815481106105fd576105fd6119dd565b600091825260209182902060408051606081018252600293909302909101805483526001015460ff8116938301939093526101009092046001600160401b03169181019190915290506106508187610f47565b156106825780848481518110610668576106686119dd565b6020026020010181905250828061067e906119f3565b9350505b508061068d816119f3565b9150506105af565b50909392505050565b60008181036106af575060006101ce565b6000806106bc600061052f565b905060008151116106fe5760405162461bcd60e51b815260206004820152600c60248201526b4e4f5f475541524449414e5360a01b604482015260640161026b565b60005b84811015610847578286868381811061071c5761071c6119dd565b905060200201600001351161076b5760405162461bcd60e51b815260206004820152601560248201527424a72b20a624a22fa9a4a3a722a929afa7a92222a960591b604482015260640161026b565b85858281811061077d5761077d6119dd565b9050602002016000013592506000805b83518110156107f0578787848181106107a8576107a86119dd565b905060200201600001358482815181106107c4576107c46119dd565b602002602001015160000151036107de57600191506107f0565b806107e8816119f3565b91505061078d565b50806108345760405162461bcd60e51b815260206004820152601360248201527229a4a3a722a92fa727aa2fa3aaa0a92224a0a760691b604482015260640161026b565b508061083f816119f3565b915050610701565b508051610858600182811c90611a0c565b9094101595945050505050565b60006108716001610ed8565b9050600a8111156104785760405162461bcd60e51b815260206004820152601c60248201527f477561726469616e3a20544f4f5f4d414e595f475541524449414e5300000000604482015260640161026b565b6000806108d16001610ed8565b9050600a81106109235760405162461bcd60e51b815260206004820152601c60248201527f477561726469616e3a20544f4f5f4d414e595f475541524449414e5300000000604482015260640161026b565b42600382111561093d5761093a6203f48042611a0c565b90505b6000610958600080516020611c378339815191528684610f70565b9050806109a75760405162461bcd60e51b815260206004820181905260248201527f477561726469616e3a204641494c45445f544f5f4144445f475541524449414e604482015260640161026b565b847ffcdfd5aeb97f499ca134ed43f010f2a4f5b0ab73d317ac27246a066a050a73af836040516109d991815260200190565b60405180910390a2949350505050565b6000908152600080516020611c37833981519152602052604090205490565b60408051606081018252600080825260208201819052918101919091527f45859138d8d663d06b2ba6d2358a3e0ff977596ccb2ad702c7f89e6584675d35805483908110610a5857610a586119dd565b600091825260209182902060408051606081018252600293909302909101805483526001015460ff8116938301939093526101009092046001600160401b03169181019190915292915050565b80600181600003610ac85760405162461bcd60e51b815260040161026b90611a24565b6000610ad3836109e9565b905060008111610b255760405162461bcd60e51b815260206004820152601c60248201527f477561726469616e3a20475541524449414e5f4e4f545f464f554e4400000000604482015260640161026b565b6000610b326001836119c6565b90506000610b3f82610a08565b9050610b4b8185610f47565b610b975760405162461bcd60e51b815260206004820152601d60248201527f477561726469616e3a20475541524449414e5f4e4f545f414354495645000000604482015260640161026b565b505050505050565b600080610baf6203f48042611a0c565b90506000610bbc846109e9565b90506000610bcb6001836119c6565b90506000600080516020611c378339815191526001018281548110610bf257610bf26119dd565b600091825260209182902060408051606081018252600293909302909101805483526001015460ff8116938301939093526101009092046001600160401b0316918101919091529050610c458185611027565b9350857f2264fa092e5819982f4edca5b7e9c6318a16dc3e03673510429c078656dea45c85604051610c7991815260200190565b60405180910390a250600195945050505050565b6000908152600080516020611c17833981519152602052604090205460ff1690565b610cb98282611157565b6000828152600080516020611c178339815191526020526040812060010154604080518481526020810183905291925084917f03fd27265b7dd1f55558bedc22a58fa3b10afb1be776e614bd5a7ba7b9499406910160405180910390a2505050565b80600381511015610d6e5760405162461bcd60e51b815260206004820152601f60248201527f477561726469616e3a204d494e5f475541524449414e535f4e4f545f4d455400604482015260640161026b565b81600a81511115610dc15760405162461bcd60e51b815260206004820181905260248201527f477561726469616e3a204d41585f475541524449414e535f4558434545444544604482015260640161026b565b60005b83518110156103d757838181518110610ddf57610ddf6119dd565b6020026020010151600003610e065760405162461bcd60e51b815260040161026b90611a24565b610e28848281518110610e1b57610e1b6119dd565b60200260200101516109e9565b15610e755760405162461bcd60e51b815260206004820152601960248201527f477561726469616e3a20475541524449414e5f45584953545300000000000000604482015260640161026b565b80610e7f816119f3565b915050610dc4565b600081511161047a5760405162461bcd60e51b815260206004820181905260248201527f477561726469616e3a204e4f5f475541524449414e535f544f5f52454d4f5645604482015260640161026b565b600080610ee48361052f565b905060005b8151811015610f40576000828281518110610f0657610f066119dd565b60200260200101519050610f1a8186610f47565b15610f2d5783610f29816119f3565b9450505b5080610f38816119f3565b915050610ee9565b5050919050565b6000610f528361140a565b80610f695750818015610f695750610f6983611435565b9392505050565b6001808401546000918290610f86908390611a0c565b9050856001016040518060600160405280878152602001600160ff168152602001610fb08761145f565b6001600160401b039081169091528254600181810185556000948552602080862085516002909402019283558085015192820180546040968701519095166101000268ffffffffffffffffff1990951660ff9094169390931793909317909155888452908990529120919091559150509392505050565b60006110328361140a565b156110c457600060208401526110478261145f565b6001600160401b03166040840152825161107190600080516020611c378339815191525b906114bc565b6110bd5760405162461bcd60e51b815260206004820152601b60248201527f477561726469616e3a20554e45585045435445445f524553554c540000000000604482015260640161026b565b50806101ce565b6110cd83611435565b1561114e57600060208401819052604084015282516110fa90600080516020611c3783398151915261106b565b6111465760405162461bcd60e51b815260206004820152601b60248201527f477561726469616e3a20554e45585045435445445f524553554c540000000000604482015260640161026b565b5060006101ce565b50600092915050565b6000828152600080516020611c178339815191526020526040902060028101549082907f30644e72e131a029b85045b68181585d2833e84879b9709143e1f593f0000001821061120f5760405162461bcd60e51b815260206004820152603860248201527f496e6372656d656e74616c42696e617279547265653a206c656166206d75737460448201527f206265203c20534e41524b5f5343414c41525f4649454c440000000000000000606482015260840161026b565b61121885610c8d565b611223906002611b4a565b831061127d5760405162461bcd60e51b815260206004820152602360248201527f496e6372656d656e74616c42696e617279547265653a207472656520697320666044820152621d5b1b60ea1b606482015260840161026b565b60005b61128986610c8d565b60ff168160ff1610156113c9576112a1600285611b6f565b600003611303576040805180820182528481526000888152600080516020611c17833981519152602090815283822060ff86168084526003909101825284832054828501528252600486019052919091206112fd91600261169d565b5061131e565b60ff8116600090815260048301602052604090208390600101555b60ff81166000908152600480840160205260409182902091516314d2f97b60e11b815273__$6d81c1d65787d697695b56adedd76022ba$__926329a5f2f6926113679201611b83565b602060405180830381865af4158015611384573d6000803e3d6000fd5b505050506040513d601f19601f820116820180604052508101906113a89190611bb4565b92506113b5600285611bcd565b9350806113c181611be1565b915050611280565b506000858152600080516020611c1783398151915260205260409020600101829055611403600080516020611c1783398151915286611672565b5050505050565b602081015160009060ff1660011480156101ce57505060400151426001600160401b03909116111590565b602081015160009060ff1660011480156101ce57505060400151426001600160401b039091161190565b60006001600160401b038211156114b85760405162461bcd60e51b815260206004820152601c60248201527f53616665436173743a2076616c756520646f6573206e6f742066697400000000604482015260640161026b565b5090565b600081815260208390526040812054806115185760405162461bcd60e51b815260206004820152601d60248201527f477561726469616e3a20475541524449414e5f4e4f545f455849535453000000604482015260640161026b565b60006115256001836119c6565b905060018581015461153791906119c6565b81146116185760018086018054909161154f916119c6565b8154811061155f5761155f6119dd565b9060005260206000209060020201856001018281548110611582576115826119dd565b600091825260208220835460029092020190815560019283018054918401805460ff19811660ff909416938417825591546001600160401b0361010091829004160268ffffffffffffffffff199092169092171790559086018054849288929091859081106115f3576115f36119dd565b9060005260206000209060020201600001548152602001908152602001600020819055505b8460010180548061162b5761162b611c00565b60008281526020808220600260001994909401938402018281556001908101805468ffffffffffffffffff1916905592909355958652959052505060408220919091555090565b6000818152602083905260408120600201805460019290611694908490611a0c565b90915550505050565b82600281019282156116cb579160200282015b828111156116cb5782518255916020019190600101906116b0565b506114b89291505b808211156114b857600081556001016116d3565b6000602082840312156116f957600080fd5b81358015158114610f6957600080fd5b6020808252825182820181905260009190848201906040850190845b8181101561176b576117588385518051825260208082015160ff16908301526040908101516001600160401b0316910152565b9284019260609290920191600101611725565b50909695505050505050565b6000806020838503121561178a57600080fd5b82356001600160401b03808211156117a157600080fd5b818501915085601f8301126117b557600080fd5b8135818111156117c457600080fd5b8660208260051b85010111156117d957600080fd5b60209290920196919550909350505050565b6000602082840312156117fd57600080fd5b5035919050565b8151815260208083015160ff16908201526040808301516001600160401b031690820152606081016101ce565b600060208083528351808285015260005b8181101561185e57858101830151858201604001528201611842565b81811115611870576000604083870101525b50601f01601f1916929092016040019392505050565b634e487b7160e01b600052604160045260246000fd5b600082601f8301126118ad57600080fd5b813560206001600160401b03808311156118c9576118c9611886565b8260051b604051601f19603f830116810181811084821117156118ee576118ee611886565b60405293845285810183019383810192508785111561190c57600080fd5b83870191505b8482101561192b57813583529183019190830190611912565b979650505050505050565b6000806040838503121561194957600080fd5b8235915060208301356001600160401b0381111561196657600080fd5b6119728582860161189c565b9150509250929050565b60006020828403121561198e57600080fd5b81356001600160401b038111156119a457600080fd5b61028c8482850161189c565b634e487b7160e01b600052601160045260246000fd5b6000828210156119d8576119d86119b0565b500390565b634e487b7160e01b600052603260045260246000fd5b600060018201611a0557611a056119b0565b5060010190565b60008219821115611a1f57611a1f6119b0565b500190565b60208082526022908201527f477561726469616e3a20475541524449414e5f484153485f49445f49535f5a45604082015261524f60f01b606082015260800190565b600181815b80851115611aa1578160001904821115611a8757611a876119b0565b80851615611a9457918102915b93841c9390800290611a6b565b509250929050565b600082611ab8575060016101ce565b81611ac5575060006101ce565b8160018114611adb5760028114611ae557611b01565b60019150506101ce565b60ff841115611af657611af66119b0565b50506001821b6101ce565b5060208310610133831016604e8410600b8410161715611b24575081810a6101ce565b611b2e8383611a66565b8060001904821115611b4257611b426119b0565b029392505050565b6000610f6960ff841683611aa9565b634e487b7160e01b600052601260045260246000fd5b600082611b7e57611b7e611b59565b500690565b60408101818360005b6002811015611bab578154835260209092019160019182019101611b8c565b50505092915050565b600060208284031215611bc657600080fd5b5051919050565b600082611bdc57611bdc611b59565b500490565b600060ff821660ff8103611bf757611bf76119b0565b60010192915050565b634e487b7160e01b600052603160045260246000fdfe18009942081384ebf013f551c6956278f8f7e6b5ba58de96a877e7d2e169e67045859138d8d663d06b2ba6d2358a3e0ff977596ccb2ad702c7f89e6584675d34a26469706673582212202fdc9d0b5fbfb74cc11a90e1d5f0ab4444def4a5dfa928cde950082a64c798fc64736f6c634300080e0033",
  "linkReferences": {
    "contracts/utils/cryptography/Hashes.sol": {
      "PoseidonT3": [
        {
          "length": 20,
          "start": 4963
        }
      ]
    }
  },
  "deployedLinkReferences": {
    "contracts/utils/cryptography/Hashes.sol": {
      "PoseidonT3": [
        {
          "length": 20,
          "start": 4931
        }
      ]
    }
  }
}